:100000006F005001000000009608000094080000F6
:1000100000000000000000000000000000000000E0
:1000200000000000000000000000000000000000D0
:100030009408000000000000940800000000000088
:100040009408000094080000940800009408000040
:100050009408000094080000940800009408000030
:100060009408000094080000940800009408000020
:100070009408000094080000940800009408000010
:100080009408000094080000940800009408000000
:10009000940800009408000094080000000000008C
:1000A000634E050263C305042E86AA857D5515C2DD
:1000B00085466378B6006356C00006068606E36C84
:1000C000B6FE014563E4C500918D558D858205829C
:1000D000F5FA82808682C93F2E8582823305A04050
:1000E0006347B000B305B040C1B7B305B0408682E6
:1000F000653F3305A0408282868263C7050063495D
:1001000005005D372E858282B305B040E35B05FEB6
:100110003305A040513F3305B040828200003111C9
:1001200026C406C822C6AE84AA87B28599C60143F2
:1001300063D79600B684054319A00143A68633848D
:10014000964063530400014422863A853EC21AC099
:10015000EF001015024392472A87B3068500014637
:10016000B385C4406342B00463D304008144B385C3
:1001700096003385E540630403026372B702930778
:10018000A002A38FF5FE9386F5FF637AD700238F35
:10019000F5FE9386E5FF6374D700A38EF5FEC2409B
:1001A0003244A24451018280B385C70003C50500D3
:1001B000B385C60005062380A5005DB7011106CEF4
:1001C00022CC26CA02C02A836357050089E68547E8
:1001D0003303A0403EC0058A1304100619C213045D
:1001E0001004BA8459141A853AC81AC22EC61AC401
:1001F000D535A5472243B24542479376F50F63E1D3
:10020000A7069386060393F6F60F938714002380C0
:10021000D4001A853AC83EC62EC479359246A24506
:10022000B24742472A8363FBB602824699C69306C9
:10023000D0022380D700938724003385E74093566C
:10024000F501AA962380070085860146FD17634BBA
:10025000D600F2406244D24405618280BE8461B718
:10026000A29655B7B305C70083C2070003C30500B4
:1002700005062380550023806700C9BF1377F50F5B
:1002800085670A07938707D8BA9721810547904366
:100290003317A700AD471446F98E99E6FD1793F77B
:1002A000F70FF5FB0545828001458280130181FC33
:1002B000B703002006DA22D826D62AC621430147F2
:1002C0009383030003A643008567938707D893763B
:1002D000F60F21821376F60F8A0693122600BE9639
:1002E0003D449442B31554003AD413C7F5FF9145E9
:1002F0003AC23397550088423AC412471AD216CEF2
:10030000798D224736CC32D0598D03A7030088C29D
:100310001375F70F0A05AA9784439357670093F75D
:10032000C73F88403314F4001344F4FFB395F5003D
:10033000618D4D8D88C03A853AC03ECA2EC83D3F7A
:100340003707002093030700C245D247E246F24236
:100350001253225709ED0256884685403396C00055
:100360000607698E1377F70F19C2136717009040BD
:100370000545B317F500618E5D8E7D1390C0137334
:10038000F30FE31103F4324605CE12459042698E15
:100390002245498E90C2944002453AC4E18ECD8EEA
:1003A00094C03EC2E13D944092472247758C5D8CDB
:1003B00080C0D2504254B2543A85130181038280E6
:1003C00090421243331555003376C300D9B7797183
:1003D00006D622D426D22A86214337050020930749
:1003E0000500D8438567938607D89375F70F218357
:1003F0001377F70F931327003AC43D47331777005D
:100400008A059342F7FF13178601AE9661879442DF
:1004100093050500938707D8635B070C9842114545
:100420003377570033157500498F98C298413D4482
:1004300036CA3AC01377F70F0A07BA978443824740
:1004400091469840998393F7C73F3314F4001344BF
:10045000F4FFB396F6000245618F558F98C032D0F5
:1004600016CE1ECC1AC83EC636C2093DB247AA8572
:100470008840424302560547B317F700618D5D8DF2
:100480007D13060688C01373F30FD246E243F2428F
:100490001376F60FE31303F4A9E590423EC89147A3
:1004A0003395770033765600498E90C2904092473C
:1004B0000245618E5D8E90C02ECA36C6C133C247DA
:1004C000D24501EDB2462246054794463317C70090
:1004D000758F3337E000931517009840798C5D8C49
:1004E00080C0B250225492542E8545618280984239
:1004F0000545337757003DB73703002011119302AC
:10050000030003A5020022CA03A4420005679376F4
:10051000F50F9377F40F130707D88A068A07BA975F
:100520003697144326C819809354650003C7020107
:1005300090431374C43FBD4793F4C43FB395870001
:1005400006CCB397970093C5F5FF93C7F7FF05EB6C
:1005500013030300184201456D8F854533948500D0
:10056000598C00C29842B3949500F98FDD8C84C2F7
:100570002308B300E2405244C24471018280184211
:100580009142B39382006D8F3367770018C298420F
:10059000B39292002EC67D8F3367570098C232C443
:1005A0003EC236C0E13937070020824692472246D4
:1005B000B2451303070059DD75BFB70700E0938705
:1005C000470F9C438280011122CC06CE26CA2AC046
:1005D00002C82E84F9E1B70700E09387470F9C43D8
:1005E00089C793F7070891E3C93FF2402285624427
:1005F000D24405618280B30694401D46368763531A
:10060000D6001D4737760200130616108325030017
:1006100013F505083DED81C91AC63AC436C2713FCB
:1006200032432247924693A63600014699E21306CA
:10063000D7FF8247938534000808BE951AC43AC292
:100640008D2942468247B70600E02243124793862F
:10065000860F90C28D4533869700814683420600FF
:10066000850693870601338527002300550063051F
:10067000D7000506E394B6FE9306470093E606F816
:100680002308D100C246BA942320D300E3C584F6E0
:10069000A9BF7D1625FE268489BF370300E081446B
:1006A0001303430FE5B7511122C206C42E84213F24
:1006B000A2402285124431018280311126C4B70440
:1006C000002093840400D4400566130606D893F7EF
:1006D000F60F8A07B2979843998293F6C63F0C4368
:1006E000BD4722C63394D7001344F4FF05453315A4
:1006F000D500E18DC98D884006C80CC39375F50FF0
:100700008A052E960C42135365001373C33F904124
:10071000B397670093C7F7FFF18F11463313660055
:10072000B3E767009CC136C23AC0893E0247924691
:1007300011461C433316D600C2407D8C518C00C339
:10074000324423880400A24451018280411122C412
:1007500026C206C62A842EC04533AA841DE9B707DF
:10076000002003C5870006051375E50F8D31AA84A7
:100770000DE1B1398247A297C207C1830345040046
:100780003EC00504A9318247131704014183E317D2
:10079000F7FE2537B24022442685924441018280EB
:1007A000211122C806CA26C62AC02EC2B1332A8405
:1007B00039E1B707002083C48700860413F5E40FEE
:1007C00039312A840DE92131053B13E514001375F5
:1007D000F50FF53E82479244FD14C204C1809DE0AE
:1007E000924702470545FD17C207C183B304F700CE
:1007F000753C2380A400D135D24022854244B244C6
:100800006101828001453EC45534A2472380A70080
:100810008507D9B79701002093814100138181FE9C
:1008200013050008731005308D4617F5FFFF1305FB
:10083000657D558D7310553017F5FF1F1305057E27
:1008400097F5FF1F9385857D01466356B50010C15E
:100850001105E34EB5FE170500001305A55397F5E6
:10086000FF1F9385257A17F6FF1F1306267B6388E3
:10087000C500144194C111059105E39AC5FEB7F76F
:1008800000E0154798C385679387C7B57390173401
:100890007300203001A0371702401C47B7068000C4
:1008A000D58F1CC7AA8703C7070001E73385A74078
:1008B00082808507CDBF130141FAA2CAA6C886CCA3
:1008C0002AC02EC23284B68402CA8347040093062B
:1008D0001400A30FF10081EBE64056445245C64494
:1008E0001301C105828036C6130750026380E702F8
:1008F0001246824785451305F1018297B24626C408
:100900003684D247A244AA973ECAC1B7034714000F
:100910001306000393060003A30FE10032C69307FA
:1009200024006312D7083E8481468147A54511A85B
:10093000139727000504BA970347F4FF8607B29779
:100940008546130607FD1375F60FE3F3A5FE99C25E
:10095000A30FE1003EC8E14663D3F60036C8130694
:10096000C00681466318C700034704008546050496
:10097000A30FE1000346F101130740066305E606F5
:100980006367C702930780056302F60A9307300680
:100990006300F60C31D21246824785451305F101FA
:1009A000829726C4B9BF9306000236C6ADBF1307AF
:1009B0005007630AE602130780076309E606130778
:1009C0003007E31AE6FC3ECC9387440084403EC4E3
:1009D0002685C93DE247AA856359F008C2463246DA
:1009E0003818268525A0938744003EC485CA13067F
:1009F000B6F818109336160088400146A945EFF066
:100A0000EFFBC24632463818AA850810EFF02FF1E6
:100A10001246AA85281882478297E5B593075007A2
:100A200018108546E30AF6FC8146F9B7884013069C
:100A300086FA938744001810854613361600C14580
:100A40003EC4EFF0AFF7C2463246AA85381875BFEC
:100A5000938744003EC49C40C2463246A30FF10037
:100A6000381885451305F10155B71246268565B737
:100A70001301C1FD32CA2A862EC836CC814514081E
:100A80001305606A06C63ACE3ED036C02D35B24058
:100A9000130141028280AA850565130545CEC9BFB1
:100AA0002A96AA876393C70082802380B7008507B0
:100AB000D5BF81476313F60082803387F5008346F4
:100AC00007003307F50085072300D700E5B751116C
:100AD00006C422C226C0AA84F1332A84AA852685A8
:100AE000DD3405658545130505D0F13CA2401305AD
:100AF00014001244824431018280B7270240054726
:100B000098C3B71702403707080123A2070013074D
:100B1000170898C337079F0098C7371702401C4330
:100B200093966700E3DD06FE5C43B7160240F19B37
:100B300093E727005CC32147DC42B18BE39EE7FECD
:100B4000B70700E09387870F23A00700B70700E0EF
:100B50009387470F1307000898C38280211106CAA4
:100B600022C8613FB7050020938505009C413717D7
:100B700002400323870191463396F60033666600F0
:100B80001366160010CF03A345008322870113F5D7
:100B9000F70FB3956600B3E555008562938202D8DE
:100BA0000A0593E5150016950CCF08411376F30F4F
:100BB000A183054793F5F70F0A06B317F700C2079D
:100BC000B2921CC903A60200935783003317F700A3
:100BD000420718CA8322050013F3F70F8A05BD47A1
:100BE0003397B7001347F7FFB395B6003377570035
:100BF0004D8F18C118420A03B397670093C7F7FFD8
:100C0000F98FB3966600D58F1CC2453C0565130568
:100C100045D0753D0144EFF03F8E13151400137558
:100C2000E50FEFF0CFFA19E12285B53579340504E7
:100C30001374F40F9307F007E31FF4FC0565130525
:100C400085D2713585450A8523000100013649E1C9
:100C5000930700102314F1008D45894728002305D0
:100C6000F100ED3435E5A301010023120100230357
:100C7000010005648545130531001D3601C51305C6
:100C800004D4B135834531000565130585D5CD33D1
:100C90008D454800313601C5130504D40D3D83460A
:100CA000410003465100834561000565130585D663
:100CB000C133B7F700E09847B777DC02938707C0E6
:100CC0003E97B7F600E09C46998FE3CE07FE5DB7EE
:100CD0000565130505D4E53BD24042447D556101CD
:100CE00082800000416464726573733A2030782515
:100CF00030325820526573706F6E6465642E0A003E
:100D00000A0000002D2D2D2D5363616E6E696E67F4
:100D1000204932432042757320666F722044657605
:100D2000696365732D2D2D002D2D2D2D446F6E655E
:100D3000205363616E6E696E672D2D2D2D0A0000A4
:100D40004572726F72205573696E672074686520F2
:100D500049324320427573005365636F6E64733A82
:100D600020253032580A000054696D653A2025303C
:100D700032583A253032583A253032580A0A0000A3
:100D80000008014000000000001001400014014074
:100D900003050000030400006800000000000000DC
:080DA00000000000000000004B
:00000001FF
