:100000006F00D02200000000AA0A0000A80A000029
:1000100000000000000000000000000000000000E0
:1000200000000000000000000000000000000000D0
:10003000A80A000000000000A80A0000000000005C
:10004000A80A0000A80A0000A80A0000A80A0000E8
:10005000A80A0000A80A0000A80A0000A80A0000D8
:10006000A80A0000A80A0000A80A0000A80A0000C8
:10007000A80A0000A80A0000A80A0000A80A0000B8
:10008000A80A0000A80A0000A80A0000A80A0000A8
:10009000A80A0000A80A0000A80A0000000000004A
:1000A000634E050263C305042E86AA857D5515C2DD
:1000B00085466378B6006356C00006068606E36C84
:1000C000B6FE014563E4C500918D558D858205829C
:1000D000F5FA82808682C93F2E8582823305A04050
:1000E0006347B000B305B040C1B7B305B0408682E6
:1000F000653F3305A0408282868263C7050063495D
:1001000005005D372E858282B305B040E35B05FEB6
:100110003305A040513F3305B040828200003111C9
:1001200026C406C822C6AE84AA87B28599C60143F2
:1001300063D79600B684054319A00143A68633848D
:10014000964063530400014422863A853EC21AC099
:10015000EF00D035024392472A87B3068500014657
:10016000B385C4406342B00463D304008144B385C3
:1001700096003385E540630403026372B702930778
:10018000A002A38FF5FE9386F5FF637AD700238F35
:10019000F5FE9386E5FF6374D700A38EF5FEC2409B
:1001A0003244A24451018280B385C70003C50500D3
:1001B000B385C60005062380A5005DB7011106CEF4
:1001C00022CC26CA02C02A836357050089E68547E8
:1001D0003303A0403EC0058A1304100619C213045D
:1001E0001004BA8459141A853AC81AC22EC61AC401
:1001F000D535A5472243B24542479376F50F63E1D3
:10020000A7069386060393F6F60F938714002380C0
:10021000D4001A853AC83EC62EC479359246A24506
:10022000B24742472A8363FBB602824699C69306C9
:10023000D0022380D700938724003385E74093566C
:10024000F501AA962380070085860146FD17634BBA
:10025000D600F2406244D24405618280BE8461B718
:10026000A29655B7B305C70083C2070003C30500B4
:1002700005062380550023806700C9BF1377F50F5B
:1002800085670A07938747F2BA972181054790430C
:100290003317A700AD471446F98E99E6FD1793F77B
:1002A000F70FF5FB0545828001458280130141FD72
:1002B00022D23714024006D426D02AC2A1420146D7
:1002C000610437030020130503005C41832304000D
:1002D00032CE13F7F70F05669146930046F20A07F0
:1002E000B395F6000697B3E575008323070016CC97
:1002F00093E51500A1830CC093F7F70F83A40300C7
:100300003EC013972700BD47B395E70093C5F5FF9F
:10031000E58D23A0B30083A503003397E6000841D1
:100320004D8F23A0E3001840B395A6009374F50FFA
:100330004D8F8A042EC8A6901ECA1367170018C0D6
:1003400003A700009354650093F4C43F8320070083
:10035000B397970093C7F7FFB3F0F000232017007F
:1003600083200700B39696003EC6B3E6160014C37A
:100370003AC42937056637030020930646F2224720
:10038000B247C245E24272461303030005E1D2437D
:100390008240054583A38300331515000606337597
:1003A00075001376F60F19C1136616000840FD128A
:1003B00093F2F20FC98D93E515000CC00C43ED8F3D
:1003C0001CC31C438545B3949500DD8C04C3E39A9C
:1003D00002EE832743009142924413F7F70FB39341
:1003E000F20099830A0793F7C73F3D4536973315C7
:1003F000F50018431345F5FFDDC80C40B392F20039
:10040000B3E5750093E515000CC00C43E98D0CC3F2
:100410000C43B3E2B2002320570003250300B717B3
:10042000024003A3870191453397A5003363E3009E
:1004300032C63AC49372F50F1363130023AC6700FE
:10044000139322009A9680429356650093F6C63F16
:1004500003230400BD44B394D40093C4F4FF337366
:1004600093002320640003230400B395D500E10723
:10047000B3E565000CC03EC236C00935924722473D
:1004800082468C433246A2504D8F1367170098C3A3
:100490001C403285FD8C04C018408547B397D700B7
:1004A000D98F1CC0125482541301C102828083224E
:1004B0000400B395F500B3E2720093E2120023202A
:1004C00054008322070033F5A20008C30843C98DF6
:1004D0000CC3A1B71301C1FD22CE3714024006D0D0
:1004E00026CC2A86A142610437030020930703002B
:1004F000DC430567114593F5F70F930647F28A052C
:10050000B314F5009983AE9693F7C73FBD45931397
:100510008601B395F50093D38341944293C5F5FFCB
:1005200013030300130747F263D5031A8323040060
:100530003315F500B3E3930093E313002320740015
:1005400083A30600B3F5B3008CC28C424D8D88C2E4
:10055000032503001440914432CA9377F50F339674
:10056000A400D18E8A0716C832C2BA9793E6160045
:1005700014C094439357650093F7C73F8C423D479F
:10058000B313F70013C7F3FFF98D8CC283A30600E2
:10059000B395F4003AC0B3E575008CC23EC636C4CC
:1005A000F1390C409247A246AA83DD8D93E51500F0
:1005B0000CC08C428247C2425246FD8D8CC2B2476B
:1005C00088428545B397F500C98F9CC2FD128567A7
:1005D0000606138747F293F2F20FB707002013764F
:1005E000F60F13830700E39102F0832743000840CE
:1005F0001ECA93F6F70F8A063396F400BA96944211
:10060000498E13661600A18310C093F7F70F83A2DB
:100610000600139627003EC8BD473395C700134513
:10062000F5FF3375550088C288423396C40036C63C
:10063000498E0325030090C2032304009372F50F33
:100640008A023396A400169718433363C30032C45A
:1006500013631300232064001353650083220700F3
:100660001373C33F339467001344F4FFB3F2820063
:100670002320570083220700B39464001AC2B3E416
:10068000540004C33AC0DD3E024712432246D2431F
:1006900011E9B246C24785459446B395F500F58DFC
:1006A00091C18943B7170240944F8250E244558E5E
:1006B0001366160090CF1C431E857D8C00C3144327
:1006C00085477244B3976700D58F1CC3130141025D
:1006D00082800840458D1365150008C08842E98D69
:1006E0008CC288428545B397F500C98F9CC28DB5F1
:1006F000511122C23704002093050400D44126C0C2
:10070000856413F7F60F938744F213162700B29708
:10071000904383C7050106C413040400938444F284
:10072000C9EF5C40B7150240884D13F7F70F11462B
:100730000A07B316F6002697C98E084393E61600FB
:1007400094CD99830323050093F7C73F3D47B31624
:10075000F70093C6F6FFB3F6660014C10323050045
:100760008546B397F600B3E767001CC11C4003A39E
:1007700085013316F6003366660013F5F70F13662E
:10078000160090CD1316250026961042998393F7F4
:10079000C73F0C423317F7001347F7FF6D8F18C29E
:1007A0001842B397F6000145D98F1CC22308D40024
:1007B000A2401244824431018280B7150240884D24
:1007C00091473397E700498F1367170098CD9982B7
:1007D0000323060093F6C63F3D473315D700134564
:1007E000F5FF3375650008C20842B396D700C98E7D
:1007F000084014C203A385019376F50F8A06339649
:10080000A700A6969442336666001366160090CD44
:10081000135665008C421376C63F3317C700134743
:10082000F7FF6D8F98C29842B397C700D98F9CC2CB
:10083000B134E30805EEADBFB70700E09387470F7B
:100840009C438280011122CC06CE26CA2AC002C84F
:100850002E84F9E1B70700E09387470F9C4389C7CF
:1008600093F7070891E3C93FF24022856244D244DE
:1008700005618280B30694401D4636876353D600D7
:100880001D4737760200130616108325030013F563
:1008900005083DED81C91AC63AC436C2713F3243DC
:1008A0002247924693A63600014699E21306D7FFE7
:1008B0008247938534000808BE951AC43AC20121C4
:1008C00042468247B70600E0224312479386860FCE
:1008D00090C28D4533869700814683420600850687
:1008E0009387060133852700230055006305D70051
:1008F0000506E394B6FE9306470093E606F8230840
:10090000D100C246BA942320D300E3C584F6A9BF20
:100910007D1625FE268489BF370300E0814413033A
:10092000430FE5B7511122C206C42E84213FA240D5
:100930002285124431018280B70200202111938266
:10094000020022C803A4420037170240104F9376DA
:10095000F40F05639147130343F28A06B3958700AA
:100960009A9626C64D8E844206CA2EC0136616007D
:1009700010CF198088401374C43FBD46339686005B
:100980001346F6FF718D88C083A304000545331517
:1009900085003365750088C003A5020083208701A8
:1009A00032C4B393A700B3E313009375F50F93E339
:1009B0001300232C7700939325001E9383230300B9
:1009C000135365001373C33F83A00300B3966600FF
:1009D00093C6F6FFB3F6160023A0D30083A6030048
:1009E0003393670061073363D30023A063003AC2E7
:1009F00071301247824722461443D240B3E5D700F4
:100A000093E515000CC398409147B3978700798E02
:100A100090C098404244D98F9CC0B7070020938271
:100A2000070023880200B244610182809701002000
:100A30009381C1DE138181FE130500087310053018
:100A40008D4617F5FFFF1305E55B558D7310553087
:100A500017F5FF1F1305855C9385C180014663561A
:100A6000B50010C11105E34EB5FE170500001305D2
:100A7000A54C97F5FF1F9385E55817F6FF1F130642
:100A8000E6596388C500144194C111059105E39AA4
:100A9000C5FEB7F700E0154798C38567938787D6EB
:100AA000739017347300203001A0371702401C47A1
:100AB000B7068000D58F1CC7AA8703C7070001E7C8
:100AC0003385A74082808507CDBF130141FAA2CAB2
:100AD000A6C886CC2AC02EC23284B68402CA8347F6
:100AE000040093061400A30FF10081EBE640564486
:100AF0005245C6441301C105828036C61307500211
:100B00006380E7021246824785451305F10182970B
:100B1000B24626C43684D247A244AA973ECAC1B779
:100B2000034714001306000393060003A30FE1001C
:100B300032C6930724006312D7083E84814681475A
:100B4000A54511A8139727000504BA970347F4FF9A
:100B50008607B2978546130607FD1375F60FE3F374
:100B6000A5FE99C2A30FE1003EC8E14663D3F6009B
:100B700036C81306C00681466318C7000347040041
:100B800085460504A30FE1000346F1011307400663
:100B90006305E6066367C702930780056302F60AEA
:100BA000930730066300F60C31D212468247854522
:100BB0001305F101829726C4B9BF9306000236C619
:100BC000ADBF13075007630AE602130780076309E6
:100BD000E60613073007E31AE6FC3ECC9387440091
:100BE00084403EC42685C93DE247AA856359F00882
:100BF000C24632463818268525A0938744003EC455
:100C000085CA1306B6F818109336160088400146B8
:100C1000A945EFF0AFDAC24632463818AA85081067
:100C2000EFF0EFCF1246AA85281882478297E5B5E4
:100C30009307500718108546E30AF6FC8146F9B77A
:100C40008840130686FA93874400181085461336A9
:100C50001600C1453EC4EFF06FD6C2463246AA85A3
:100C6000381875BF938744003EC49C40C246324644
:100C7000A30FF100381885451305F10155B7124649
:100C8000268565B71301C1FD32CA2A8605652EC8BF
:100C900036CC814514081305459206C63ACE3ED09F
:100CA00036C02535B2401301410282802A96AA87B8
:100CB0006393C70082802380B7008507D5BF814733
:100CC0006313F60082803387F500834607003307FD
:100CD000F50085072300D700E5B7511106C422C2ED
:100CE00026C0AA84D13B2A84AA852685A13E056513
:100CF0008545130585EDB936A2401305140012444D
:100D0000824431018280B7270240054798C3B71754
:100D100002403707080123A207001307170898C3EA
:100D200037079F0098C7371702401C439396670008
:100D3000E3DD06FE5C43B7160240F19B93E7270014
:100D40005CC32147DC42B18BE39EE7FEB70700E0BE
:100D50009387870F23A00700B70700E09387470F0B
:100D60001307000898C38280411106C622C426C218
:100D7000593FB70400209385040098410565130589
:100D800045F2935787001377F70F93162700AA961B
:100D90009442054693F2F70FB317F600C2079CCAB8
:100DA000DC418A0293D587003316B60093F7F70F1C
:100DB00013F3F50F93150601139627003295104192
:100DC000371502400A030CCA8323850191453397E6
:100DD000E500336777001367170018CD80423D4761
:100DE000B313570093C3F3FFB3F3830023A076003C
:100DF00083A30600B392550033176700B3E2720075
:100E000023A0560083228501B396F5001347F7FF10
:100E1000B3E6560093E6160014CD1C4201447D8FC4
:100E200018C21842B3976500D98F1CC231360565C8
:100E30001305C5ED5D35938704003EC0931414007F
:100E400093F4F40F75302685EFF0CFE811E5856750
:100E5000A6851385C7EE3D35C53405041374F40F1C
:100E600093070008E31CF4FC0565130585F03704BF
:100E70000020A53513048401EFF09F8721E5824708
:100E800003C58700EFF00FE515ED1305B003EFF094
:100E90006FE4EFF0FF858247A28403C587001365E6
:100EA0001500EFF02FE30145EFF04FC02380A400C1
:100EB0009387B1808504E398F4FE0545EFF00FBFFA
:100EC000A305A400953C0346140083450400056572
:100ED000130585F1453B4DB70A0000000A536361D5
:100EE0006E6E696E672E2E2E2E000000092D204496
:100EF00065766963652030782530325820526570F8
:100F00006F6E6465640A0000446F6E652053636110
:100F10006E6E696E670000003078253032582530DB
:100F200032580A0000080140000000000010014093
:040F30000014014068
:100F34000203000002040000D000000000000000D2
:080F44000000000000000000A5
:00000001FF
