:100000006F00B02300000000B80A0000B60A00002C
:1000100000000000000000000000000000000000E0
:1000200000000000000000000000000000000000D0
:10003000B60A000000000000B60A00000000000040
:10004000B60A0000B60A0000B60A0000B60A0000B0
:10005000B60A0000B60A0000B60A0000B60A0000A0
:10006000B60A0000B60A0000B60A0000B60A000090
:10007000B60A0000B60A0000B60A0000B60A000080
:10008000B60A0000B60A0000B60A0000B60A000070
:10009000B60A0000B60A0000B60A00000000000020
:1000A000634E050263C305042E86AA857D5515C2DD
:1000B00085466378B6006356C00006068606E36C84
:1000C000B6FE014563E4C500918D558D858205829C
:1000D000F5FA82808682C93F2E8582823305A04050
:1000E0006347B000B305B040C1B7B305B0408682E6
:1000F000653F3305A0408282868263C7050063495D
:1001000005005D372E858282B305B040E35B05FEB6
:100110003305A040513F3305B040828200003111C9
:1001200026C406C822C6AE84AA87B28599C60143F2
:1001300063D79600B684054319A00143A68633848D
:10014000964063530400014422863A853EC21AC099
:10015000EF00B036024392472A87B3068500014676
:10016000B385C4406342B00463D304008144B385C3
:1001700096003385E540630403026372B702930778
:10018000A002A38FF5FE9386F5FF637AD700238F35
:10019000F5FE9386E5FF6374D700A38EF5FEC2409B
:1001A0003244A24451018280B385C70003C50500D3
:1001B000B385C60005062380A5005DB7011106CEF4
:1001C00022CC26CA02C02A836357050089E68547E8
:1001D0003303A0403EC0058A1304100619C213045D
:1001E0001004BA8459141A853AC81AC22EC61AC401
:1001F000D535A5472243B24542479376F50F63E1D3
:10020000A7069386060393F6F60F938714002380C0
:10021000D4001A853AC83EC62EC479359246A24506
:10022000B24742472A8363FBB602824699C69306C9
:10023000D0022380D700938724003385E74093566C
:10024000F501AA962380070085860146FD17634BBA
:10025000D600F2406244D24405618280BE8461B718
:10026000A29655B7B305C70083C2070003C30500B4
:1002700005062380550023806700C9BF1377F50F5B
:1002800085670A07938787EBBA97218105479043D3
:100290003317A700AD471446F98E99E6FD1793F77B
:1002A000F70FF5FB0545828001458280130141FD72
:1002B00022D23714024006D426D02AC2A1420146D7
:1002C000610437030020130503005C41832304000D
:1002D00032CE13F7F70F05669146930086EB0A07B7
:1002E000B395F6000697B3E575008323070016CC97
:1002F00093E51500A1830CC093F7F70F83A40300C7
:100300003EC013972700BD47B395E70093C5F5FF9F
:10031000E58D23A0B30083A503003397E6000841D1
:100320004D8F23A0E3001840B395A6009374F50FFA
:100330004D8F8A042EC8A6901ECA1367170018C0D6
:1003400003A700009354650093F4C43F8320070083
:10035000B397970093C7F7FFB3F0F000232017007F
:1003600083200700B39696003EC6B3E6160014C37A
:100370003AC42937056637030020930686EB2247E7
:10038000B247C245E24272461303030005E1D2437D
:100390008240054583A38300331515000606337597
:1003A00075001376F60F19C1136616000840FD128A
:1003B00093F2F20FC98D93E515000CC00C43ED8F3D
:1003C0001CC31C438545B3949500DD8C04C3E39A9C
:1003D00002EE832743009142924413F7F70FB39341
:1003E000F20099830A0793F7C73F3D4536973315C7
:1003F000F50018431345F5FFDDC80C40B392F20039
:10040000B3E5750093E515000CC00C43E98D0CC3F2
:100410000C43B3E2B2002320570003250300B717B3
:10042000024003A3870191453397A5003363E3009E
:1004300032C63AC49372F50F1363130023AC6700FE
:10044000139322009A9680429356650093F6C63F16
:1004500003230400BD44B394D40093C4F4FF337366
:1004600093002320640003230400B395D500E10723
:10047000B3E565000CC03EC236C00935924722473D
:1004800082468C433246A2504D8F1367170098C3A3
:100490001C403285FD8C04C018408547B397D700B7
:1004A000D98F1CC0125482541301C102828083224E
:1004B0000400B395F500B3E2720093E2120023202A
:1004C00054008322070033F5A20008C30843C98DF6
:1004D0000CC3A1B71301C1FD22CE3714024006D0D0
:1004E00026CCAA85A14361043703002093070300AB
:1004F000DC438566114513F6F70F138786EB0A0672
:10050000B310F5009983329793F7C73F3D463316F2
:10051000F60093F2150018431346F6FF1303030089
:10052000938686EB638D021A832204003315F5004F
:10053000B3E2120093E2120023205400832207004A
:1005400033F6C20010C31043518D08C303250300C6
:10055000104091443397A4009377F50F598E8A0782
:10056000B6972ECA1EC83AC61366160010C090432E
:100570009357650093F7C73F832206003D47B310AA
:10058000F70013C7F0FFB3F2E200232056008320E8
:100590000600B392F4003AC0B3E2120023205600E2
:1005A0003EC432C2E1393247AA820840124682472D
:1005B000498F1367170018C01842C243D2457D8F78
:1005C00018C2A24708420547B317F700C98F1CC2DB
:1005D000FD1385678605938687EB93F3F30FB707C3
:1005E000002093F5F50F13830700E39F03EE63915B
:1005F000020E83274300084016CA13F6F70F0A06B7
:10060000B395F40036961042C98D93E51500A18389
:100610000CC093F7F70F83230600939527003EC87D
:10062000BD473395B7001345F5FF3375750008C214
:100630000842B395B40032C6C98D032503000CC22D
:10064000032304009373F50F8A03B395A4009E96C9
:1006500094423363B3002EC4136313002320640059
:100660001353650083A306001373C33F33946700DD
:100670001344F4FFB3F3830023A0760083A30600A2
:10068000B39464001AC2B3E4740084C236C0FD3669
:1006900082461243A245D24201ED3246C247054787
:1006A00010463317F700718F3337E00093121700AD
:1006B000B7170240984FD98D93E515008CCF9C4217
:1006C0007D8C80C298428547B3976700D98F9CC2C2
:1006D00082507244E2441685130141028280084030
:1006E000336515001365150008C00843698E10C3F3
:1006F00008430546B317F600C98F1CC381BD5111CD
:1007000022C23704002093050400D44126C085642A
:1007100013F7F60F938784EB13162700B2979043D5
:1007200083C7050106C413040400938484EBC9EF56
:100730005C40B7150240884D13F7F70F11460A07C2
:10074000B316F6002697C98E084393E6160094CD9B
:1007500099830323050093F7C73F3D47B316F7007E
:1007600093C6F6FFB3F6660014C103230500854661
:10077000B397F600B3E767001CC11C4003A38501D3
:100780003316F6003366660013F5F70F136616008E
:1007900090CD1316250026961042998393F7C73FF4
:1007A0000C423317F7001347F7FF6D8F18C218423A
:1007B000B397F6000145D98F1CC22308D400A2408C
:1007C0001244824431018280B7150240884D91471E
:1007D0003397E700498F1367170098CD9982032359
:1007E000060093F6C63F3D473315D7001345F5FF86
:1007F0003375650008C20842B396D700C98E084019
:1008000014C203A385019376F50F8A063396A700D9
:10081000A6969442336666001366160090CD135672
:1008200065008C421376C63F3317C7001347F7FFA6
:100830006D8F98C29842B397C700D98F9CC23D3C38
:10084000E30805EEADBFB70700E09387470F9C4371
:100850008280011122CC06CE26CA2AC002C82E846C
:10086000F9E1B70700E09387470F9C4389C793F7E7
:10087000070891E3C93FF24022856244D2440561F2
:100880008280B30694401D4636876353D6001D47C9
:1008900037760200130616108325030013F50508AA
:1008A0003DED81C91AC63AC436C2713F3243224770
:1008B000924693A63600014699E21306D7FF824777
:1008C000938534000808BE951AC43AC201214246F5
:1008D0008247B70600E0224312479386860F90C2F4
:1008E0008D453386970081468342060085069387AF
:1008F000060133852700230055006305D700050650
:10090000E394B6FE9306470093E606F82308D10069
:10091000C246BA942320D300E3C584F6A9BF7D164E
:1009200025FE268489BF370300E081441303430F6B
:10093000E5B7511122C206C42E84213FA240228570
:10094000124431018280B7020020211193820200FB
:1009500022C803A4420037170240104F9376F40FC9
:1009600005639147130383EB8A06B39587009A9634
:1009700026C64D8E844206CA2EC01366160010CFBE
:10098000198088401374C43FBD46339686001346D1
:10099000F6FF718D88C083A30400054533158500DB
:1009A0003365750088C003A502008320870132C427
:1009B000B393A700B3E313009375F50F93E313000C
:1009C000232C7700939325001E9383230300135356
:1009D00065001373C33F83A00300B396660093C6FC
:1009E000F6FFB3F6160023A0D30083A603003393CB
:1009F000670061073363D30023A063003AC2BD38A8
:100A00001247824722461443D240B3E5D70093E50C
:100A100015000CC398409147B3978700798E90C01A
:100A200098404244D98F9CC0B707002093820700AA
:100A300023880200B24461018280970100209381E3
:100A4000E1DD138181FE13050008731005308D462A
:100A500017F5FFFF1305055B558D7310553017F51E
:100A6000FF1F1305A55B9385C18001466356B50042
:100A700010C11105E34EB5FE17050000130505452D
:100A800097F5FF1F9385055817F6FF1F13060659A4
:100A90006388C500144194C111059105E39AC5FE10
:100AA000B7F700E0154798C385679387A7D473907D
:100AB00017347300203001A0371702401C47B706D7
:100AC0008000D58F1CC7AA8703C7070001E73385BD
:100AD000A74082808507CDBF130141FAA2CAA6C8EC
:100AE00086CC2AC02EC23284B68402CA8347040050
:100AF00093061400A30FF10081EBE64056445245E3
:100B0000C6441301C105828036C6130750026380B4
:100B1000E7021246824785451305F1018297B246E6
:100B200026C43684D247A244AA973ECAC1B7034717
:100B300014001306000393060003A30FE10032C65E
:100B4000930724006312D7083E8481468147A54558
:100B500011A8139727000504BA970347F4FF8607E7
:100B6000B2978546130607FD1375F60FE3F3A5FE4E
:100B700099C2A30FE1003EC8E14663D3F60036C830
:100B80001306C00681466318C70003470400854664
:100B90000504A30FE1000346F101130740066305B6
:100BA000E6066367C702930780056302F60A9307A8
:100BB00030066300F60C31D2124682478545130594
:100BC000F101829726C4B9BF9306000236C6ADBFB5
:100BD00013075007630AE602130780076309E60656
:100BE00013073007E31AE6FC3ECC938744008440A9
:100BF0003EC42685C93DE247AA856359F008C2462E
:100C000032463818268525A0938744003EC485CAFD
:100C10001306B6F818109336160088400146A94509
:100C2000EFF0CFD9C24632463818AA850810EFF047
:100C30000FCF1246AA85281882478297E5B59307F9
:100C4000500718108546E30AF6FC8146F9B788403C
:100C5000130686FA9387440018108546133616004B
:100C6000C1453EC4EFF08FD5C2463246AA8538183A
:100C700075BF938744003EC49C40C2463246A30FD2
:100C8000F100381885451305F10155B71246268540
:100C900065B71301C1FD32CA2A8605652EC836CC58
:100CA000814514081305259306C63ACE3ED036C0BA
:100CB0002535B2401301410282802A96AA876393A8
:100CC000C70082802380B7008507D5BF81476313A3
:100CD000F60082803387F500834607003307F5006E
:100CE00085072300D700E5B7B7270240054798C31B
:100CF000B71702403707080123A207001307170898
:100D000098C337079F0098C7371702401C43939634
:100D10006700E3DD06FE5C43B7160240F19B93E7F4
:100D200027005CC32147DC42B18BE39EE7FEB70797
:100D300000E09387870F23A00700B70700E09387A1
:100D4000470F1307000898C38280311106C822C6D6
:100D500026C4593FB70400209385040098410565D7
:100D6000130585EB935787001377F70F931627002A
:100D7000AA969442054693F2F70FB317F600C207FE
:100D80009CCADC418A0293D587003316B60093F7DC
:100D9000F70F13F3F50F93150601139627003295FD
:100DA0001041371502400A030CCA8323850191457F
:100DB0003397E500336777001367170018CD80423B
:100DC0003D47B313570093C3F3FFB3F3830023A04E
:100DD000760083A30600B392550033176700B3E291
:100DE000720023A0560083228501B396F5001347B5
:100DF000F7FFB3E6560093E6160014CD1C420144FB
:100E00007D8F18C21842B3976500D98F1CC2253E4A
:100E1000938704003EC09314140093F4F40FC5307C
:100E20002685EFF02FEB11E58567A685138507EA88
:100E30008D35113E05041374F40F93070008E31C6D
:100E4000F4FC37040020653829E9824703C5870090
:100E5000EFF04FE839E11305B003EFF0AFE7EFF043
:100E60001F8A82479304840103C587001365150018
:100E7000EFF04FE69307840101453EC2EFF00FC348
:100E800092471387B1802380A7008507E396E7FE8A
:100E90000545EFF0AFC1A385A40075346DB7000020
:100EA0004465766963652030782530325820526574
:100EB000706F6E6465640A00000801400000000065
:080EC000001001400014014084
:100EC8000203000002040000D0000000000000003F
:080ED800000000000000000012
:00000001FF
