:100000006F00D001000000009A080000980800006E
:1000100000000000000000000000000000000000E0
:1000200000000000000000000000000000000000D0
:100030009808000000000000980800000000000080
:100040009808000098080000980800009808000030
:100050009808000098080000980800009808000020
:100060009808000098080000980800009808000010
:100070009808000098080000980800009808000000
:1000800098080000980800009808000098080000F0
:100090009808000098080000980800000000000080
:1000A000634E050263C305042E86AA857D5515C2DD
:1000B00085466378B6006356C00006068606E36C84
:1000C000B6FE014563E4C500918D558D858205829C
:1000D000F5FA82808682C93F2E8582823305A04050
:1000E0006347B000B305B040C1B7B305B0408682E6
:1000F000653F3305A0408282868263C7050063495D
:1001000005005D372E858282B305B040E35B05FEB6
:100110003305A040513F3305B040828200003111C9
:1001200026C406C822C6AE84AA87B28599C60143F2
:1001300063D79600B684054319A00143A68633848D
:10014000964063530400014422863A853EC21AC099
:10015000EF00B014024392472A87B3068500014698
:10016000B385C4406342B00463D304008144B385C3
:1001700096003385E540630403026372B702930778
:10018000A002A38FF5FE9386F5FF637AD700238F35
:10019000F5FE9386E5FF6374D700A38EF5FEC2409B
:1001A0003244A24451018280B385C70003C50500D3
:1001B000B385C60005062380A5005DB7011106CEF4
:1001C00022CC26CA02C02A836357050089E68547E8
:1001D0003303A0403EC0058A1304100619C213045D
:1001E0001004BA8459141A853AC81AC22EC61AC401
:1001F000D535A5472243B24542479376F50F63E1D3
:10020000A7069386060393F6F60F938714002380C0
:10021000D4001A853AC83EC62EC479359246A24506
:10022000B24742472A8363FBB602824699C69306C9
:10023000D0022380D700938724003385E74093566C
:10024000F501AA962380070085860146FD17634BBA
:10025000D600F2406244D24405618280BE8461B718
:10026000A29655B7B305C70083C2070003C30500B4
:1002700005062380550023806700C9BF1377F50F5B
:1002800085670A079387C7CCBA97218105479043B2
:100290003317A700AD471446F98E99E6FD1793F77B
:1002A000F70FF5FB0545828001458280B7020020EB
:1002B0009382020083A74200371302408325830103
:1002C00011473316F70011114D8E22CA26C806CCED
:1002D00013661600232CC30093F6F70F056613066A
:1002E000C6CC8A06B2968C42A18393F7F70F83A3FC
:1002F0000500939627003D443315D4001345F5FFC0
:100300003375750088C18841B316D7003EC6C98EC3
:1003100094C103A50200832283012EC4B316A70053
:10032000B3E2D20036C29373F50F93E21200232C8E
:100330005300139323001A96044213566500137654
:10034000C63F03A304003314C4001344F4FF337303
:10035000830023A0640003A304003317C70032C046
:100360003367670098C0193F2A87024692460145C5
:1003700011EBA245B247054598453315F500798D37
:100380003335A000B7170240984FE240D98E93E66C
:10039000160094CF9C407D8C80C098408547524485
:1003A000B397C700D98F9CC0C2447101828051119C
:1003B00022C23704002093050400D44126C085647E
:1003C00013F7F60F9387C4CC13162700B297904308
:1003D00083C7050106C4130404009384C4CCC9EF89
:1003E0005C40B7150240884D13F7F70F11460A0716
:1003F000B316F6002697C98E084393E6160094CDEF
:1004000099830323050093F7C73F3D47B316F700D1
:1004100093C6F6FFB3F6660014C1032305008546B4
:10042000B397F600B3E767001CC11C4003A3850126
:100430003316F6003366660013F5F70F13661600E1
:1004400090CD1316250026961042998393F7C73F47
:100450000C423317F7001347F7FF6D8F18C218428D
:10046000B397F6000145D98F1CC22308D400A240DF
:100470001244824431018280B7150240884D914771
:100480003397E700498F1367170098CD99820323AC
:10049000060093F6C63F3D473315D7001345F5FFD9
:1004A0003375650008C20842B396D700C98E08406C
:1004B00014C203A385019376F50F8A063396A7002D
:1004C000A6969442336666001366160090CD1356C6
:1004D00065008C421376C63F3317C7001347F7FFFA
:1004E0006D8F98C29842B397C700D98F9CC2793359
:1004F000E30805EEADBFB70700E09387470F9C43C5
:100500008280011122CC06CE26CA2AC002C82E84BF
:10051000F9E1B70700E09387470F9C4389C793F73A
:10052000070891E3C93FF24022856244D244056145
:100530008280B30694401D4636876353D6001D471C
:1005400037760200130616108325030013F50508FD
:100550003DED81C91AC63AC436C2713F32432247C3
:10056000924693A63600014699E21306D7FF8247CA
:10057000938534000808BE951AC43AC2052B42463A
:100580008247B70600E0224312479386860F90C247
:100590008D45338697008146834206008506938702
:1005A000060133852700230055006305D7000506A3
:1005B000E394B6FE9306470093E606F82308D100BD
:1005C000C246BA942320D300E3C584F6A9BF7D16A2
:1005D00025FE268489BF370300E081441303430FBF
:1005E000E5B7511122C206C42E84213FA2402285C4
:1005F000124431018280B702002093870200DC435D
:100600000566114393F6F70F1307C6CC8A06B3139A
:10061000F30099832111369793F7C73FBD46B396F0
:10062000F600B715024006CA22C826C6184393C66C
:10063000F6FF938202001306C6CCE10559CD88412E
:100640003313F300336575001365150088C10C433F
:10065000ED8E14C314433363D3002320670003A536
:100660000200B71702408C4F91463397A600D98DF0
:100670003AC41373F50F93E515008CCF931523003F
:100680002E960042135665001376C63F0C40BD44BB
:10069000B394C40093C4F4FFE58D0CC00C40B39632
:1006A000C600E107CD8E14C03EC232C0C13E9247A3
:1006B000224702469443D240558F1367170098C3D0
:1006C0001C40FD8C04C018408547B397C700D98FE4
:1006D0001CC04244B2446101828088413365750088
:1006E0001365150088C10C43ED8E14C30C43854679
:1006F000B397F600CD8F1CC39DB7511122C226C0FF
:1007000006C42A84A144FD141355740093F4F40F15
:100710000604D5351374F40FFDF4493EA24012448B
:100720008244060531018280B702002021119382A4
:10073000020022C803A4420037170240104F9376EC
:10074000F40F056391471303C3CC8A06B395870062
:100750009A9626C64D8E844206CA2EC0136616008F
:1007600010CF198088401374C43FBD46339686006D
:100770001346F6FF718D88C083A304000545331529
:1007800085003365750088C003A5020083208701BA
:1007900032C4B393A700B3E313009375F50F93E34B
:1007A0001300232C7700939325001E9383230300CB
:1007B000135365001373C33F83A00300B396660011
:1007C00093C6F6FFB3F6160023A0D30083A603005A
:1007D0003393670061073363D30023A063003AC2F9
:1007E000713C1247824722461443D240B3E5D700FA
:1007F00093E515000CC398409147B3978700798E15
:1008000090C098404244D98F9CC0B7070020938283
:10081000070023880200B244610182809701002012
:100820009381C1FF138181FE130500087310053009
:100830008D4617F5FFFF1305E57C558D7310553078
:1008400017F5FF1F1305857D9385C180014663560B
:10085000B50010C11105E34EB5FE170500001305E4
:10086000254897F5FF1F9385E57917F6FF1F1306B7
:10087000E67A6388C500144194C111059105E39A95
:10088000C5FEB7F700E0154798C385679387A7B201
:10089000739017347300203001A0371702401C47B3
:1008A000B7068000D58F1CC7AA8703C7070001E7DA
:1008B0003385A74082808507CDBF130141FAA2CAC4
:1008C000A6C886CC2AC02EC23284B68402CA834708
:1008D000040093061400A30FF10081EBE640564498
:1008E0005245C6441301C105828036C61307500223
:1008F0006380E7021246824785451305F10182971E
:10090000B24626C43684D247A244AA973ECAC1B78B
:10091000034714001306000393060003A30FE1002E
:1009200032C6930724006312D7083E84814681476C
:10093000A54511A8139727000504BA970347F4FFAC
:100940008607B2978546130607FD1375F60FE3F386
:10095000A5FE99C2A30FE1003EC8E14663D3F600AD
:1009600036C81306C00681466318C7000347040053
:1009700085460504A30FE1000346F1011307400675
:100980006305E6066367C702930780056302F60AFC
:10099000930730066300F60C31D212468247854534
:1009A0001305F101829726C4B9BF9306000236C62B
:1009B000ADBF13075007630AE602130780076309F8
:1009C000E60613073007E31AE6FC3ECC93874400A3
:1009D00084403EC42685C93DE247AA856359F00894
:1009E000C24632463818268525A0938744003EC467
:1009F00085CA1306B6F818109336160088400146CB
:100A0000A945EFF0AFFBC24632463818AA85081058
:100A1000EFF0EFF01246AA85281882478297E5B5D5
:100A20009307500718108546E30AF6FC8146F9B78C
:100A30008840130686FA93874400181085461336BB
:100A40001600C1453EC4EFF06FF7C2463246AA8594
:100A5000381875BF938744003EC49C40C246324656
:100A6000A30FF100381885451305F10155B712465B
:100A7000268565B71301C1FD32CA2A862EC836CC39
:100A8000814514081305205E06C63ACE3ED036C016
:100A90002D35B2401301410282802A96AA876393C2
:100AA000C70082802380B7008507D5BF81476313C5
:100AB000F60082803387F500834607003307F50090
:100AC00085072300D700E5B7B7270240054798C33D
:100AD000B71702403707080123A2070013071708BA
:100AE00098C337079F0098C7371702401C43939657
:100AF0006700E3DD06FE5C43B7160240F19B93E717
:100B000027005CC32147DC42B18BE39EE7FEB707B9
:100B100000E09387870F23A00700B70700E09387C3
:100B2000470F1307000898C38280211106CA22C804
:100B300026C6593FB70400209385040098410565F7
:100B40001305C5CC935787001377F70F931627002B
:100B5000AA969442054693F2F70FB317F600C20720
:100B60009CCADC418A0293D587003316B60093F7FE
:100B7000F70F13F3F50F931506011396270032951F
:100B80001041371502400A030CCA832385019145A1
:100B90003397E500336777001367170018CD80425D
:100BA0003D47B313570093C3F3FFB3F3830023A070
:100BB000760083A30600B392550033176700B3E2B3
:100BC000720023A0560083228501B396F5001347D7
:100BD000F7FFB3E6560093E6160014CD1C4201441D
:100BE0007D8F18C21842B3976500D98F1CC22D3E65
:100BF000938704003EC09314140093F4F40FEFF0B5
:100C00000FFB2685DD3C11E58567A685138547CB5F
:100C10009535193E05041374F40F93070008E31C7F
:100C2000F4FCEFF0CFF849E5824703C58700F134C3
:100C300041E11305B003D134EFF06FF7824703C5EC
:100C4000870013651500553CB707002013878701FF
:100C50009387B1803EC2214481443AC4EFF00FE54E
:100C6000939714007D14C98F1374F40F224793F4E3
:100C7000F70F65F401454132224792472300970060
:100C80000507E31AF7FCA1473EC2EFF02FE29247B7
:100C90000604498CFD1793F7F70F1374F40FEDF763
:100CA0000545913AB707002093878701A385870000
:100CB000A53C85BF44657669636520307825303270
:100CC00058205265706F6E6465640A000008014028
:0C0CD00000000000001001400014014072
:100CDC000203000002040000D0000000000000002D
:080CEC00000000000000000000
:00000001FF
