:100000006F00801F00000000680200006602000010
:1000100000000000000000000000000000000000E0
:1000200000000000000000000000000000000000D0
:1000300066020000000000006602000000000000F0
:100040006602000066020000660200006602000010
:100050006602000066020000660200006602000000
:1000600066020000660200006602000066020000F0
:1000700066020000660200006602000066020000E0
:1000800066020000660200006602000066020000D0
:100090006602000066020000660200000000000028
:1000A00037170240104F9147B397A700D18F93E7BE
:1000B00017001CCF9376F50F13972600930780380F
:1000C000BA97984319811375C53F1443BD47B39739
:1000D000A70093C7F7FFF58F1CC31C43B395A5007A
:1000E000DD8D0CC382801377F50F0A0793078038E4
:1000F000BA972181054790433317A700AD471446AF
:10010000F98E99E6FD1793F7F70FF5FB0545828009
:1001100001458280411122C426C206C62A84A14418
:10012000B707002093870700C84393178401E1872E
:10013000914563C307008545A537B707002093871E
:1001400007009C43914506043E853EC0913F024511
:100150001374F40F493F0245854599379387F4FF9F
:1001600093F4F70FD5FC3704002093070400C44331
:10017000914526853537930704009C4391450144FA
:100180003E853EC0313F0245B93F0DE193F6F40F85
:100190008A06130780383697184393D7840005449E
:1001A00018473314F400798C3334800002458545B8
:1001B000C53DB2401315140022449244410182808F
:1001C000411122C4370400201304040026C2444015
:1001D000854506C62685E935084091452AC0C935BA
:1001E0000245113726859145653DB240230604003E
:1001F00022449244410182809701002093818161D1
:10020000138101FF13050008731005308D46170593
:100210000000130525DF558D73105530138581803F
:100220009385818001466356B50010C11105E34EE8
:10023000B5FE13058039970500209385A5DC13864C
:1002400081806388C500144194C111059105E39A2A
:10025000C5FEB7F700E0154798C39307802D73904C
:1002600017347300203001A0371702401C47B7062F
:100270008000D58F1CC7B7270240054798C3B71722
:1002800002403707080123A207001307170898C385
:1002900037079F0098C7371702401C4393966700A3
:1002A000E3DD06FE5C43B7160240F19B93E72700AF
:1002B0005CC32147DC42B18BE39EE7FEB70700E059
:1002C0009387870F23A00700B70700E09387470FA6
:1002D0001307000898C38280411106C622C426C2B3
:1002E00037040020493F130604001C42930680385F
:1002F00013F7F70F0A0736970C43A1830547C84544
:10030000B317F70093C7F7FFE98FDCC55C4213040E
:100310000400B704002013F6F70F0A06B2969442C1
:10032000A1833317F700D0461347F7FF718FD8C664
:10033000413D8347C400484085E3484085458D33AF
:1003400008408545B13B85471305000D2306F400A1
:10035000D13309CDB535F1BF914599330840914569
:100360002AC03D3B0245413369D9EDB7938704016B
:1003700003C507003EC0793B82471387418085074C
:10038000E398E7FEC1BF0000000801400000000044
:080390000010014000140140BF
:10039800020300000204000000000000000000004A
:0803A8001B55AAEE0000000045
:00000001FF
